{
  "contractName": "Sellable",
  "abi": [
    {
      "constant": true,
      "inputs": [],
      "name": "askingPrice",
      "outputs": [
        {
          "name": "",
          "type": "uint256"
        }
      ],
      "payable": false,
      "stateMutability": "view",
      "type": "function"
    },
    {
      "constant": true,
      "inputs": [],
      "name": "selling",
      "outputs": [
        {
          "name": "",
          "type": "bool"
        }
      ],
      "payable": false,
      "stateMutability": "view",
      "type": "function"
    },
    {
      "constant": true,
      "inputs": [],
      "name": "sellingTo",
      "outputs": [
        {
          "name": "",
          "type": "address"
        }
      ],
      "payable": false,
      "stateMutability": "view",
      "type": "function"
    },
    {
      "constant": true,
      "inputs": [],
      "name": "owner",
      "outputs": [
        {
          "name": "",
          "type": "address"
        }
      ],
      "payable": false,
      "stateMutability": "view",
      "type": "function"
    },
    {
      "inputs": [],
      "payable": false,
      "stateMutability": "nonpayable",
      "type": "constructor"
    },
    {
      "anonymous": false,
      "inputs": [
        {
          "indexed": false,
          "name": "_saleData",
          "type": "uint256"
        },
        {
          "indexed": false,
          "name": "_from",
          "type": "address"
        },
        {
          "indexed": false,
          "name": "_to",
          "type": "address"
        },
        {
          "indexed": false,
          "name": "_salePrice",
          "type": "uint256"
        }
      ],
      "name": "Transfer",
      "type": "event"
    },
    {
      "constant": false,
      "inputs": [
        {
          "name": "_price",
          "type": "uint256"
        },
        {
          "name": "_to",
          "type": "address"
        }
      ],
      "name": "initiateSale",
      "outputs": [],
      "payable": false,
      "stateMutability": "nonpayable",
      "type": "function"
    },
    {
      "constant": false,
      "inputs": [],
      "name": "cancelSale",
      "outputs": [],
      "payable": false,
      "stateMutability": "nonpayable",
      "type": "function"
    },
    {
      "constant": false,
      "inputs": [
        {
          "name": "valued",
          "type": "uint256"
        }
      ],
      "name": "completeSale",
      "outputs": [],
      "payable": true,
      "stateMutability": "payable",
      "type": "function"
    }
  ],
  "bytecode": "0x608060405260008060146101000a81548160ff02191690831515021790555034801561002a57600080fd5b50336000806101000a81548173ffffffffffffffffffffffffffffffffffffffff021916908373ffffffffffffffffffffffffffffffffffffffff1602179055507ff2dbd98d79f00f7aff338b824931d607bfcc63d47307162470f25a055102d3b04260008060009054906101000a900473ffffffffffffffffffffffffffffffffffffffff166000604051808581526020018473ffffffffffffffffffffffffffffffffffffffff1673ffffffffffffffffffffffffffffffffffffffff1681526020018373ffffffffffffffffffffffffffffffffffffffff1673ffffffffffffffffffffffffffffffffffffffff16815260200182815260200194505050505060405180910390a161075d806101446000396000f300608060405260043610610083576000357c0100000000000000000000000000000000000000000000000000000000900463ffffffff16806309e949e8146100885780631a7ac726146100d557806323aed228146101005780634d8a96101461012f578063750225d0146101865780638da5cb5b146101a6578063e7e10490146101fd575b600080fd5b34801561009457600080fd5b506100d360048036038101908080359060200190929190803573ffffffffffffffffffffffffffffffffffffffff169060200190929190505050610214565b005b3480156100e157600080fd5b506100ea610386565b6040518082815260200191505060405180910390f35b34801561010c57600080fd5b5061011561038c565b604051808215151515815260200191505060405180910390f35b34801561013b57600080fd5b5061014461039f565b604051808273ffffffffffffffffffffffffffffffffffffffff1673ffffffffffffffffffffffffffffffffffffffff16815260200191505060405180910390f35b6101a4600480360381019080803590602001909291905050506103c5565b005b3480156101b257600080fd5b506101bb610626565b604051808273ffffffffffffffffffffffffffffffffffffffff1673ffffffffffffffffffffffffffffffffffffffff16815260200191505060405180910390f35b34801561020957600080fd5b5061021261064b565b005b6000809054906101000a900473ffffffffffffffffffffffffffffffffffffffff1673ffffffffffffffffffffffffffffffffffffffff163373ffffffffffffffffffffffffffffffffffffffff1614151561026f57600080fd5b3073ffffffffffffffffffffffffffffffffffffffff168173ffffffffffffffffffffffffffffffffffffffff16141580156102f857506000809054906101000a900473ffffffffffffffffffffffffffffffffffffffff1673ffffffffffffffffffffffffffffffffffffffff168173ffffffffffffffffffffffffffffffffffffffff1614155b151561030357600080fd5b600060149054906101000a900460ff1615151561031f57600080fd5b6001600060146101000a81548160ff02191690831515021790555080600160006101000a81548173ffffffffffffffffffffffffffffffffffffffff021916908373ffffffffffffffffffffffffffffffffffffffff160217905550816002819055505050565b60025481565b600060149054906101000a900460ff1681565b600160009054906101000a900473ffffffffffffffffffffffffffffffffffffffff1681565b60008060008060149054906101000a900460ff1615156103e457600080fd5b6000809054906101000a900473ffffffffffffffffffffffffffffffffffffffff1673ffffffffffffffffffffffffffffffffffffffff163373ffffffffffffffffffffffffffffffffffffffff161415151561044057600080fd5b600160009054906101000a900473ffffffffffffffffffffffffffffffffffffffff1673ffffffffffffffffffffffffffffffffffffffff163373ffffffffffffffffffffffffffffffffffffffff1614806104ea5750600073ffffffffffffffffffffffffffffffffffffffff16600160009054906101000a900473ffffffffffffffffffffffffffffffffffffffff1673ffffffffffffffffffffffffffffffffffffffff16145b15156104f557600080fd5b6002548414151561050557600080fd5b6000809054906101000a900473ffffffffffffffffffffffffffffffffffffffff1692503391506002549050816000806101000a81548173ffffffffffffffffffffffffffffffffffffffff021916908373ffffffffffffffffffffffffffffffffffffffff1602179055507ff2dbd98d79f00f7aff338b824931d607bfcc63d47307162470f25a055102d3b042848484604051808581526020018473ffffffffffffffffffffffffffffffffffffffff1673ffffffffffffffffffffffffffffffffffffffff1681526020018373ffffffffffffffffffffffffffffffffffffffff1673ffffffffffffffffffffffffffffffffffffffff16815260200182815260200194505050505060405180910390a16106206106cb565b50505050565b6000809054906101000a900473ffffffffffffffffffffffffffffffffffffffff1681565b6000809054906101000a900473ffffffffffffffffffffffffffffffffffffffff1673ffffffffffffffffffffffffffffffffffffffff163373ffffffffffffffffffffffffffffffffffffffff161415156106a657600080fd5b600060149054906101000a900460ff1615156106c157600080fd5b6106c96106cb565b565b60008060146101000a81548160ff0219169083151502179055506000600160006101000a81548173ffffffffffffffffffffffffffffffffffffffff021916908373ffffffffffffffffffffffffffffffffffffffff16021790555060006002819055505600a165627a7a72305820e550eb031b45c240e9043fd45928da10c14d33c1bb652a197e9e1f74e6d129dc0029",
  "source": "pragma solidity ^0.4.18;\n/**\n* sellable contract should be inherited by any other contract that\n* wants to provide a mechanism for selling its ownership to another account\n*/\ncontract Sellable {\n\n    //the owner of the contract\n    address public owner;\n\n    //current sale status\n    bool public selling = false;\n\n    //who is the selected buyer, if any\n    //optional\n    address public sellingTo;\n\n    //how much ether (wei) the seller has asked the buyer to send\n    uint public askingPrice;\n\n    //\n    //modifiers\n    //\n\n    //makes function required the called to be the owner of the contract\n    modifier onlyOwner {\n        require(msg.sender == owner);\n        _;\n    }\n\n    //add to functions that the owner wants to prevent being called  while the\n    //contract is for sale\n    modifier ifNotLocked {\n        require(!selling);\n        _;\n    }\n\n    event Transfer(uint _saleData, address _from, address _to, uint _salePrice);\n    function Sellable() public {\n        owner = msg.sender;\n        Transfer(now, address(0), owner, 0);\n    }\n\n    /**\n    * initiateSale is called by the owner of the contract to start\n    * the sale process\n    * @param _price is the asking for the sale\n    * @param _to (OPTIONAL) is the address of the person that the owner\n    * wants to sell the contract to. If set to 0x0, anyone can buy it.\n    */\n\n    function initiateSale(uint _price, address _to) onlyOwner public {\n        require(_to != address(this) && _to != owner);\n        require(!selling);\n\n        selling = true;\n\n        // set the target buyer, if specified\n        sellingTo = _to;\n        askingPrice = _price;\n    }\n\n    /**\n    * cancelSale allows the owner to cancel the sale before someone buys\n    * the contract.\n    */\n    function cancelSale() onlyOwner public {\n        require(selling);\n\n        // Reset sale variables\n        resetSale();\n    }\n\n    /**\n    * completeSale is called buy the specified buyer (or anyone if sellingTo)\n    * was not set, to make the purchase\n    * value sent must the asking price.\n    */\n    function completeSale(uint valued) public payable {\n        require(selling);\n        require(msg.sender != owner);\n        require(msg.sender == sellingTo || sellingTo == address(0));\n        require(valued == askingPrice);\n        // swap ownership\n        address prevOwner = owner;\n        address newOwner = msg.sender;\n        uint salePrice = askingPrice;\n\n        owner = newOwner;\n\n        // Transaction cleanup\n\n        Transfer(now, prevOwner, newOwner, salePrice);\n        resetSale();\n    }\n\n    //\n    // internal functions\n    //\n\n    /**\n    * resets the variables related to a sale process\n    */\n\n    function resetSale() internal {\n        selling = false;\n        sellingTo = address(0);\n        askingPrice = 0;\n    }\n}",
  "sourcePath": "/home/dimasprase/Documents/BlockchainCouncil/sellable/contracts/sell.sol",
  "compiler": {
    "name": "solc",
    "version": "0.4.24+commit.e67f0147.Emscripten.clang"
  },
  "schemaVersion": "2.0.1",
  "updatedAt": "2018-12-12T04:38:19.573Z"
}